{
  "contractName": "Election",
  "abi": [
    {
      "inputs": [
        {
          "internalType": "uint256",
          "name": "_startTime",
          "type": "uint256"
        },
        {
          "internalType": "uint256",
          "name": "_endTime",
          "type": "uint256"
        }
      ],
      "stateMutability": "nonpayable",
      "type": "constructor"
    },
    {
      "inputs": [],
      "name": "admin",
      "outputs": [
        {
          "internalType": "address",
          "name": "",
          "type": "address"
        }
      ],
      "stateMutability": "view",
      "type": "function",
      "constant": true
    },
    {
      "inputs": [
        {
          "internalType": "uint256",
          "name": "",
          "type": "uint256"
        }
      ],
      "name": "candidates",
      "outputs": [
        {
          "internalType": "string",
          "name": "name",
          "type": "string"
        },
        {
          "internalType": "string",
          "name": "partyName",
          "type": "string"
        },
        {
          "internalType": "uint256",
          "name": "voteCount",
          "type": "uint256"
        }
      ],
      "stateMutability": "view",
      "type": "function",
      "constant": true
    },
    {
      "inputs": [],
      "name": "endTime",
      "outputs": [
        {
          "internalType": "uint256",
          "name": "",
          "type": "uint256"
        }
      ],
      "stateMutability": "view",
      "type": "function",
      "constant": true
    },
    {
      "inputs": [],
      "name": "launched",
      "outputs": [
        {
          "internalType": "bool",
          "name": "",
          "type": "bool"
        }
      ],
      "stateMutability": "view",
      "type": "function",
      "constant": true
    },
    {
      "inputs": [],
      "name": "startTime",
      "outputs": [
        {
          "internalType": "uint256",
          "name": "",
          "type": "uint256"
        }
      ],
      "stateMutability": "view",
      "type": "function",
      "constant": true
    },
    {
      "inputs": [],
      "name": "votedVotersNumber",
      "outputs": [
        {
          "internalType": "uint256",
          "name": "",
          "type": "uint256"
        }
      ],
      "stateMutability": "view",
      "type": "function",
      "constant": true
    },
    {
      "inputs": [
        {
          "internalType": "address",
          "name": "",
          "type": "address"
        }
      ],
      "name": "voters",
      "outputs": [
        {
          "internalType": "bool",
          "name": "voted",
          "type": "bool"
        },
        {
          "internalType": "address",
          "name": "delegate",
          "type": "address"
        },
        {
          "internalType": "uint256",
          "name": "vote",
          "type": "uint256"
        },
        {
          "internalType": "bool",
          "name": "hasAccess",
          "type": "bool"
        }
      ],
      "stateMutability": "view",
      "type": "function",
      "constant": true
    },
    {
      "inputs": [],
      "name": "votersNumber",
      "outputs": [
        {
          "internalType": "uint256",
          "name": "",
          "type": "uint256"
        }
      ],
      "stateMutability": "view",
      "type": "function",
      "constant": true
    },
    {
      "inputs": [
        {
          "internalType": "string[]",
          "name": "candidatesList",
          "type": "string[]"
        },
        {
          "internalType": "string[]",
          "name": "candidateParty",
          "type": "string[]"
        }
      ],
      "name": "addCandidates",
      "outputs": [],
      "stateMutability": "nonpayable",
      "type": "function"
    },
    {
      "inputs": [
        {
          "internalType": "address[]",
          "name": "voterAddresses",
          "type": "address[]"
        }
      ],
      "name": "giveRightToVote",
      "outputs": [],
      "stateMutability": "nonpayable",
      "type": "function"
    },
    {
      "inputs": [
        {
          "internalType": "uint256",
          "name": "candidate",
          "type": "uint256"
        }
      ],
      "name": "vote",
      "outputs": [],
      "stateMutability": "nonpayable",
      "type": "function"
    },
    {
      "inputs": [],
      "name": "results",
      "outputs": [
        {
          "components": [
            {
              "internalType": "string",
              "name": "name",
              "type": "string"
            },
            {
              "internalType": "string",
              "name": "partyName",
              "type": "string"
            },
            {
              "internalType": "uint256",
              "name": "voteCount",
              "type": "uint256"
            }
          ],
          "internalType": "struct Election.Candidate[]",
          "name": "",
          "type": "tuple[]"
        }
      ],
      "stateMutability": "view",
      "type": "function",
      "constant": true
    },
    {
      "inputs": [],
      "name": "viewVoters",
      "outputs": [
        {
          "internalType": "uint256[2]",
          "name": "",
          "type": "uint256[2]"
        }
      ],
      "stateMutability": "view",
      "type": "function",
      "constant": true
    },
    {
      "inputs": [],
      "name": "viewTimeInterval",
      "outputs": [
        {
          "internalType": "uint256[2]",
          "name": "",
          "type": "uint256[2]"
        }
      ],
      "stateMutability": "view",
      "type": "function",
      "constant": true
    },
    {
      "inputs": [
        {
          "internalType": "uint256",
          "name": "_startTime",
          "type": "uint256"
        },
        {
          "internalType": "uint256",
          "name": "_endTime",
          "type": "uint256"
        }
      ],
      "name": "changeTime",
      "outputs": [],
      "stateMutability": "nonpayable",
      "type": "function"
    },
    {
      "inputs": [],
      "name": "launchElection",
      "outputs": [],
      "stateMutability": "nonpayable",
      "type": "function"
    }
  ],
  "bytecode": "0x6080604052600060035560006004556000600560006101000a81548160ff0219169083151502179055503480156200003657600080fd5b506040516200230b3803806200230b83398181016040528101906200005c9190620000f2565b336000806101000a81548173ffffffffffffffffffffffffffffffffffffffff021916908373ffffffffffffffffffffffffffffffffffffffff1602179055508160018190555080600281905550505062000139565b600080fd5b6000819050919050565b620000cc81620000b7565b8114620000d857600080fd5b50565b600081519050620000ec81620000c1565b92915050565b600080604083850312156200010c576200010b620000b2565b5b60006200011c85828601620000db565b92505060206200012f85828601620000db565b9150509250929050565b6121c280620001496000396000f3fe608060405234801561001057600080fd5b50600436106101005760003560e01c80637e99992b11610097578063a3ec138d11610066578063a3ec138d14610279578063a48bdb7c146102ac578063b619a9b5146102ca578063f851a440146102d457610100565b80637e99992b146102055780638091f3bf14610221578063858168291461023f5780639346a95e1461025b57610100565b80633477ee2e116100d35780633477ee2e1461017b57806356b26c55146101ad578063707188c1146101cb57806378e97925146101e757610100565b80630121b93f1461010557806310fe4067146101215780631e5839e41461013f5780633197cbb61461015d575b600080fd5b61011f600480360381019061011a919061109b565b6102f2565b005b6101296104fc565b60405161013691906110d7565b60405180910390f35b610147610502565b60405161015491906110d7565b60405180910390f35b610165610508565b60405161017291906110d7565b60405180910390f35b6101956004803603810190610190919061109b565b61050e565b6040516101a493929190611182565b60405180910390f35b6101b5610658565b6040516101c29190611272565b60405180910390f35b6101e560048036038101906101e0919061128d565b61067e565b005b6101ef610774565b6040516101fc91906110d7565b60405180910390f35b61021f600480360381019061021a9190611332565b61077a565b005b610229610a17565b60405161023691906113ce565b60405180910390f35b6102596004803603810190610254919061143f565b610a2a565b005b610263610c99565b6040516102709190611272565b60405180910390f35b610293600480360381019061028e91906114ea565b610ccc565b6040516102a39493929190611526565b60405180910390f35b6102b4610d36565b6040516102c191906116ce565b60405180910390f35b6102d2610ec3565b005b6102dc611015565b6040516102e991906116f0565b60405180910390f35b6000600660003373ffffffffffffffffffffffffffffffffffffffff1673ffffffffffffffffffffffffffffffffffffffff168152602001908152602001600020905060015442118015610347575060025442105b610386576040517f08c379a000000000000000000000000000000000000000000000000000000000815260040161037d9061177d565b60405180910390fd5b60011515600560009054906101000a900460ff161515146103dc576040517f08c379a00000000000000000000000000000000000000000000000000000000081526004016103d3906117e9565b60405180910390fd5b8060000160009054906101000a900460ff161561042e576040517f08c379a000000000000000000000000000000000000000000000000000000000815260040161042590611855565b60405180910390fd5b8060020160009054906101000a900460ff1661047f576040517f08c379a0000000000000000000000000000000000000000000000000000000008152600401610476906118c1565b60405180910390fd5b60018160000160006101000a81548160ff021916908315150217905550818160010181905550600782815481106104b9576104b86118e1565b5b906000526020600020906003020160020160008154809291906104db9061193f565b9190505550600460008154809291906104f39061193f565b91905055505050565b60045481565b60035481565b60025481565b6007818154811061051e57600080fd5b9060005260206000209060030201600091509050806000018054610541906119b6565b80601f016020809104026020016040519081016040528092919081815260200182805461056d906119b6565b80156105ba5780601f1061058f576101008083540402835291602001916105ba565b820191906000526020600020905b81548152906001019060200180831161059d57829003601f168201915b5050505050908060010180546105cf906119b6565b80601f01602080910402602001604051908101604052809291908181526020018280546105fb906119b6565b80156106485780601f1061061d57610100808354040283529160200191610648565b820191906000526020600020905b81548152906001019060200180831161062b57829003601f168201915b5050505050908060020154905083565b610660611039565b60405180604001604052806001548152602001600254815250905090565b60008054906101000a900473ffffffffffffffffffffffffffffffffffffffff1673ffffffffffffffffffffffffffffffffffffffff163373ffffffffffffffffffffffffffffffffffffffff161461070c576040517f08c379a000000000000000000000000000000000000000000000000000000000815260040161070390611a59565b60405180910390fd5b60001515600560009054906101000a900460ff16151514610762576040517f08c379a000000000000000000000000000000000000000000000000000000000815260040161075990611ac5565b60405180910390fd5b81600181905550806002819055505050565b60015481565b60015442106107be576040517f08c379a00000000000000000000000000000000000000000000000000000000081526004016107b590611b57565b60405180910390fd5b60008054906101000a900473ffffffffffffffffffffffffffffffffffffffff1673ffffffffffffffffffffffffffffffffffffffff163373ffffffffffffffffffffffffffffffffffffffff161461084c576040517f08c379a000000000000000000000000000000000000000000000000000000000815260040161084390611bc3565b60405180910390fd5b60001515600560009054906101000a900460ff161515146108a2576040517f08c379a000000000000000000000000000000000000000000000000000000000815260040161089990611ac5565b60405180910390fd5b60005b84849050811015610a1057600760405180606001604052808787858181106108d0576108cf6118e1565b5b90506020028101906108e29190611bf2565b8080601f016020809104026020016040519081016040528093929190818152602001838380828437600081840152601f19601f82011690508083019250505050505050815260200185858581811061093d5761093c6118e1565b5b905060200281019061094f9190611bf2565b8080601f016020809104026020016040519081016040528093929190818152602001838380828437600081840152601f19601f8201169050808301925050505050505081526020016000815250908060018154018082558091505060019003906000526020600020906003020160009091909190915060008201518160000190816109da9190611e30565b5060208201518160010190816109f09190611e30565b506040820151816002015550508080610a089061193f565b9150506108a5565b5050505050565b600560009054906101000a900460ff1681565b6001544210610a6e576040517f08c379a0000000000000000000000000000000000000000000000000000000008152600401610a6590611f74565b60405180910390fd5b60008054906101000a900473ffffffffffffffffffffffffffffffffffffffff1673ffffffffffffffffffffffffffffffffffffffff163373ffffffffffffffffffffffffffffffffffffffff1614610afc576040517f08c379a0000000000000000000000000000000000000000000000000000000008152600401610af390612006565b60405180910390fd5b60001515600560009054906101000a900460ff16151514610b52576040517f08c379a0000000000000000000000000000000000000000000000000000000008152600401610b4990611ac5565b60405180910390fd5b60005b82829050811015610c78576000151560066000858585818110610b7b57610b7a6118e1565b5b9050602002016020810190610b9091906114ea565b73ffffffffffffffffffffffffffffffffffffffff1673ffffffffffffffffffffffffffffffffffffffff16815260200190815260200160002060020160009054906101000a900460ff16151503610c6557600160066000858585818110610bfb57610bfa6118e1565b5b9050602002016020810190610c1091906114ea565b73ffffffffffffffffffffffffffffffffffffffff1673ffffffffffffffffffffffffffffffffffffffff16815260200190815260200160002060020160006101000a81548160ff0219169083151502179055505b8080610c709061193f565b915050610b55565b508181905060036000828254610c8e9190612026565b925050819055505050565b610ca1611039565b60405180604001604052806004548152602001600454600354610cc4919061205a565b815250905090565b60066020528060005260406000206000915090508060000160009054906101000a900460ff16908060000160019054906101000a900473ffffffffffffffffffffffffffffffffffffffff16908060010154908060020160009054906101000a900460ff16905084565b60606007805480602002602001604051908101604052809291908181526020016000905b82821015610eba5783829060005260206000209060030201604051806060016040529081600082018054610d8d906119b6565b80601f0160208091040260200160405190810160405280929190818152602001828054610db9906119b6565b8015610e065780601f10610ddb57610100808354040283529160200191610e06565b820191906000526020600020905b815481529060010190602001808311610de957829003601f168201915b50505050508152602001600182018054610e1f906119b6565b80601f0160208091040260200160405190810160405280929190818152602001828054610e4b906119b6565b8015610e985780601f10610e6d57610100808354040283529160200191610e98565b820191906000526020600020905b815481529060010190602001808311610e7b57829003601f168201915b5050505050815260200160028201548152505081526020019060010190610d5a565b50505050905090565b60008054906101000a900473ffffffffffffffffffffffffffffffffffffffff1673ffffffffffffffffffffffffffffffffffffffff163373ffffffffffffffffffffffffffffffffffffffff1614610f51576040517f08c379a0000000000000000000000000000000000000000000000000000000008152600401610f48906120da565b60405180910390fd5b60001515600560009054906101000a900460ff16151514610fa7576040517f08c379a0000000000000000000000000000000000000000000000000000000008152600401610f9e90611ac5565b60405180910390fd5b60015442118015610fb9575060025442105b610ff8576040517f08c379a0000000000000000000000000000000000000000000000000000000008152600401610fef9061216c565b60405180910390fd5b6001600560006101000a81548160ff021916908315150217905550565b60008054906101000a900473ffffffffffffffffffffffffffffffffffffffff1681565b6040518060400160405280600290602082028036833780820191505090505090565b600080fd5b600080fd5b6000819050919050565b61107881611065565b811461108357600080fd5b50565b6000813590506110958161106f565b92915050565b6000602082840312156110b1576110b061105b565b5b60006110bf84828501611086565b91505092915050565b6110d181611065565b82525050565b60006020820190506110ec60008301846110c8565b92915050565b600081519050919050565b600082825260208201905092915050565b60005b8381101561112c578082015181840152602081019050611111565b60008484015250505050565b6000601f19601f8301169050919050565b6000611154826110f2565b61115e81856110fd565b935061116e81856020860161110e565b61117781611138565b840191505092915050565b6000606082019050818103600083015261119c8186611149565b905081810360208301526111b08185611149565b90506111bf60408301846110c8565b949350505050565b600060029050919050565b600081905092915050565b6000819050919050565b6111f081611065565b82525050565b600061120283836111e7565b60208301905092915050565b6000602082019050919050565b611224816111c7565b61122e81846111d2565b9250611239826111dd565b8060005b8381101561126a57815161125187826111f6565b965061125c8361120e565b92505060018101905061123d565b505050505050565b6000604082019050611287600083018461121b565b92915050565b600080604083850312156112a4576112a361105b565b5b60006112b285828601611086565b92505060206112c385828601611086565b9150509250929050565b600080fd5b600080fd5b600080fd5b60008083601f8401126112f2576112f16112cd565b5b8235905067ffffffffffffffff81111561130f5761130e6112d2565b5b60208301915083602082028301111561132b5761132a6112d7565b5b9250929050565b6000806000806040858703121561134c5761134b61105b565b5b600085013567ffffffffffffffff81111561136a57611369611060565b5b611376878288016112dc565b9450945050602085013567ffffffffffffffff81111561139957611398611060565b5b6113a5878288016112dc565b925092505092959194509250565b60008115159050919050565b6113c8816113b3565b82525050565b60006020820190506113e360008301846113bf565b92915050565b60008083601f8401126113ff576113fe6112cd565b5b8235905067ffffffffffffffff81111561141c5761141b6112d2565b5b602083019150836020820283011115611438576114376112d7565b5b9250929050565b600080602083850312156114565761145561105b565b5b600083013567ffffffffffffffff81111561147457611473611060565b5b611480858286016113e9565b92509250509250929050565b600073ffffffffffffffffffffffffffffffffffffffff82169050919050565b60006114b78261148c565b9050919050565b6114c7816114ac565b81146114d257600080fd5b50565b6000813590506114e4816114be565b92915050565b600060208284031215611500576114ff61105b565b5b600061150e848285016114d5565b91505092915050565b611520816114ac565b82525050565b600060808201905061153b60008301876113bf565b6115486020830186611517565b61155560408301856110c8565b61156260608301846113bf565b95945050505050565b600081519050919050565b600082825260208201905092915050565b6000819050602082019050919050565b600082825260208201905092915050565b60006115b3826110f2565b6115bd8185611597565b93506115cd81856020860161110e565b6115d681611138565b840191505092915050565b600060608301600083015184820360008601526115fe82826115a8565b9150506020830151848203602086015261161882826115a8565b915050604083015161162d60408601826111e7565b508091505092915050565b600061164483836115e1565b905092915050565b6000602082019050919050565b60006116648261156b565b61166e8185611576565b93508360208202850161168085611587565b8060005b858110156116bc578484038952815161169d8582611638565b94506116a88361164c565b925060208a01995050600181019050611684565b50829750879550505050505092915050565b600060208201905081810360008301526116e88184611659565b905092915050565b60006020820190506117056000830184611517565b92915050565b7f43616e277420766f7465206f7574736964652074686520656c656374696f6e2060008201527f696e74657276616c2e0000000000000000000000000000000000000000000000602082015250565b60006117676029836110fd565b91506117728261170b565b604082019050919050565b600060208201905081810360008301526117968161175a565b9050919050565b7f456c656374696f6e206973206e6f74206c61756e636865642079657400000000600082015250565b60006117d3601c836110fd565b91506117de8261179d565b602082019050919050565b60006020820190508181036000830152611802816117c6565b9050919050565b7f416c726561647920766f7465642e000000000000000000000000000000000000600082015250565b600061183f600e836110fd565b915061184a82611809565b602082019050919050565b6000602082019050818103600083015261186e81611832565b9050919050565b7f4e6f206163636573732e00000000000000000000000000000000000000000000600082015250565b60006118ab600a836110fd565b91506118b682611875565b602082019050919050565b600060208201905081810360008301526118da8161189e565b9050919050565b7f4e487b7100000000000000000000000000000000000000000000000000000000600052603260045260246000fd5b7f4e487b7100000000000000000000000000000000000000000000000000000000600052601160045260246000fd5b600061194a82611065565b91507fffffffffffffffffffffffffffffffffffffffffffffffffffffffffffffffff820361197c5761197b611910565b5b600182019050919050565b7f4e487b7100000000000000000000000000000000000000000000000000000000600052602260045260246000fd5b600060028204905060018216806119ce57607f821691505b6020821081036119e1576119e0611987565b5b50919050565b7f4f6e6c792061646d696e2063616e206368616e676520656c656374696f6e207460008201527f696d6520696e74657276616c2e00000000000000000000000000000000000000602082015250565b6000611a43602d836110fd565b9150611a4e826119e7565b604082019050919050565b60006020820190508181036000830152611a7281611a36565b9050919050565b7f456c656374696f6e20697320616c7265616479206c61756e6368656400000000600082015250565b6000611aaf601c836110fd565b9150611aba82611a79565b602082019050919050565b60006020820190508181036000830152611ade81611aa2565b9050919050565b7f43616e2774206164642063616e64696461746520616674657220656c6563746960008201527f6f6e207374617274732e00000000000000000000000000000000000000000000602082015250565b6000611b41602a836110fd565b9150611b4c82611ae5565b604082019050919050565b60006020820190508181036000830152611b7081611b34565b9050919050565b7f4f6e6c792061646d696e2063616e206164642063616e646964617465732e0000600082015250565b6000611bad601e836110fd565b9150611bb882611b77565b602082019050919050565b60006020820190508181036000830152611bdc81611ba0565b9050919050565b600080fd5b600080fd5b600080fd5b60008083356001602003843603038112611c0f57611c0e611be3565b5b80840192508235915067ffffffffffffffff821115611c3157611c30611be8565b5b602083019250600182023603831315611c4d57611c4c611bed565b5b509250929050565b7f4e487b7100000000000000000000000000000000000000000000000000000000600052604160045260246000fd5b60008190508160005260206000209050919050565b60006020601f8301049050919050565b600082821b905092915050565b600060088302611ce67fffffffffffffffffffffffffffffffffffffffffffffffffffffffffffffffff82611ca9565b611cf08683611ca9565b95508019841693508086168417925050509392505050565b6000819050919050565b6000611d2d611d28611d2384611065565b611d08565b611065565b9050919050565b6000819050919050565b611d4783611d12565b611d5b611d5382611d34565b848454611cb6565b825550505050565b600090565b611d70611d63565b611d7b818484611d3e565b505050565b5b81811015611d9f57611d94600082611d68565b600181019050611d81565b5050565b601f821115611de457611db581611c84565b611dbe84611c99565b81016020851015611dcd578190505b611de1611dd985611c99565b830182611d80565b50505b505050565b600082821c905092915050565b6000611e0760001984600802611de9565b1980831691505092915050565b6000611e208383611df6565b9150826002028217905092915050565b611e39826110f2565b67ffffffffffffffff811115611e5257611e51611c55565b5b611e5c82546119b6565b611e67828285611da3565b600060209050601f831160018114611e9a5760008415611e88578287015190505b611e928582611e14565b865550611efa565b601f198416611ea886611c84565b60005b82811015611ed057848901518255600182019150602085019450602081019050611eab565b86831015611eed5784890151611ee9601f891682611df6565b8355505b6001600288020188555050505b505050505050565b7f43616e27742061646420766f74657220616674657220656c656374696f6e207360008201527f74617274732e0000000000000000000000000000000000000000000000000000602082015250565b6000611f5e6026836110fd565b9150611f6982611f02565b604082019050919050565b60006020820190508181036000830152611f8d81611f51565b9050919050565b7f4f6e6c792061646d696e2063616e206769766520726967687420746f20766f7460008201527f652e000000000000000000000000000000000000000000000000000000000000602082015250565b6000611ff06022836110fd565b9150611ffb82611f94565b604082019050919050565b6000602082019050818103600083015261201f81611fe3565b9050919050565b600061203182611065565b915061203c83611065565b925082820190508082111561205457612053611910565b5b92915050565b600061206582611065565b915061207083611065565b925082820390508181111561208857612087611910565b5b92915050565b7f4f6e6c792061646d696e2063616e206c61756e636820656c656374696f6e2e00600082015250565b60006120c4601f836110fd565b91506120cf8261208e565b602082019050919050565b600060208201905081810360008301526120f3816120b7565b9050919050565b7f43616e2774206c61756e636820656c656374696f6e206166746572206974206160008201527f6c726561647920737461727465642e0000000000000000000000000000000000602082015250565b6000612156602f836110fd565b9150612161826120fa565b604082019050919050565b6000602082019050818103600083015261218581612149565b905091905056fea2646970667358221220ba91fd57cb41c0b623f3f4531e0bd319fdec0a51e0b2d48b637c6095bd8a9df964736f6c63430008110033",
  "immutableReferences": {},
  "source": "// SPDX-License-Identifier: GPL-3.0\r\npragma solidity >=0.7.0 <0.9.0;\r\n\r\ncontract Election {\r\n\r\n    struct Voter {\r\n        bool voted;  \r\n        address delegate;\r\n        uint vote;   \r\n        bool hasAccess;\r\n    }\r\n\r\n    struct Candidate {\r\n        string name;  \r\n        string partyName;   \r\n        uint voteCount; \r\n    }\r\n\r\n    address public admin;\r\n\r\n    uint public startTime;\r\n    uint public endTime;\r\n    uint public votersNumber = 0;\r\n    uint public votedVotersNumber = 0;\r\n    bool public launched = false;\r\n\r\n    mapping(address => Voter) public voters;\r\n\r\n    Candidate[] public candidates;\r\n\r\n    constructor(uint _startTime,uint _endTime) {\r\n        admin = msg.sender;\r\n        startTime = _startTime;\r\n        endTime = _endTime;\r\n    }\r\n\r\n    function addCandidates(string[] calldata candidatesList, string[] calldata candidateParty) external {\r\n        require(\r\n            block.timestamp < startTime,\r\n            \"Can't add candidate after election starts.\"\r\n        );\r\n        \r\n        require(\r\n            msg.sender == admin,\r\n            \"Only admin can add candidates.\"\r\n        );\r\n\r\n        require(\r\n            launched == false,\r\n            \"Election is already launched\"\r\n        );\r\n        \r\n        for (uint i = 0; i < candidatesList.length; i++) {\r\n            candidates.push(Candidate({\r\n                name: candidatesList[i],\r\n                partyName: candidateParty[i],\r\n                voteCount: 0\r\n            }));\r\n        }\r\n    }\r\n\r\n    function giveRightToVote(address[] calldata voterAddresses) external {\r\n        require(\r\n            block.timestamp < startTime,\r\n            \"Can't add voter after election starts.\"\r\n        );\r\n       \r\n        require(\r\n            msg.sender == admin,\r\n            \"Only admin can give right to vote.\"\r\n        );\r\n\r\n        require(\r\n            launched == false,\r\n            \"Election is already launched\"\r\n        );\r\n\r\n        for (uint p = 0; p < voterAddresses.length; p++) {\r\n            if (voters[voterAddresses[p]].hasAccess == false) {\r\n                voters[voterAddresses[p]].hasAccess = true;\r\n            }\r\n        }\r\n        votersNumber+=voterAddresses.length;\r\n    }\r\n\r\n    function vote(uint candidate) external {\r\n        Voter storage sender = voters[msg.sender];\r\n        require(\r\n            block.timestamp > startTime && block.timestamp < endTime,\r\n            \"Can't vote outside the election interval.\"\r\n        );\r\n\r\n        require(\r\n            launched == true,\r\n            \"Election is not launched yet\"\r\n        );\r\n        require(!sender.voted, \"Already voted.\");\r\n        require(sender.hasAccess, \"No access.\");\r\n        sender.voted = true;\r\n        sender.vote = candidate;\r\n        candidates[candidate].voteCount++;\r\n        votedVotersNumber++;\r\n    }\r\n\r\n    function results() public view returns (Candidate[] memory) {\r\n        return candidates;\r\n    }\r\n    \r\n    function viewVoters() public view returns (uint[2] memory) {\r\n        return [votedVotersNumber, votersNumber-votedVotersNumber ];\r\n    }\r\n    \r\n    function viewTimeInterval() public view returns (uint[2] memory) {\r\n        return [startTime, endTime ];\r\n    }\r\n\r\n    function changeTime(uint _startTime, uint _endTime) external {\r\n        require(\r\n            msg.sender == admin,\r\n            \"Only admin can change election time interval.\"\r\n        );\r\n\r\n        require(\r\n            launched == false,\r\n            \"Election is already launched\"\r\n        );\r\n\r\n        startTime = _startTime;\r\n        endTime = _endTime;\r\n    }\r\n    \r\n    function launchElection() external {\r\n        require(\r\n            msg.sender == admin,\r\n            \"Only admin can launch election.\"\r\n        );\r\n\r\n        require(\r\n            launched == false,\r\n            \"Election is already launched\"\r\n        );\r\n\r\n        require(\r\n            block.timestamp > startTime && block.timestamp < endTime,\r\n            \"Can't launch election after it already started.\"\r\n        );\r\n\r\n        launched = true;\r\n    }\r\n \r\n}",
  "sourcePath": "C:\\Users\\user\\Desktop\\SE Factory\\Final Project\\vote-chain\\frontend\\blockchain\\contracts\\Election.sol",
  "compiler": {
    "name": "solc",
    "version": "0.8.17+commit.8df45f5f.Emscripten.clang"
  },
  "schemaVersion": "3.4.10",
  "updatedAt": "2022-11-19T13:43:30.406Z",
  "networkType": "ethereum",
  "devdoc": {
    "kind": "dev",
    "methods": {},
    "version": 1
  },
  "userdoc": {
    "kind": "user",
    "methods": {},
    "version": 1
  }
}