{
  "contractName": "Election",
  "abi": [
    {
      "inputs": [
        {
          "internalType": "uint256",
          "name": "_startTime",
          "type": "uint256"
        },
        {
          "internalType": "uint256",
          "name": "_endTime",
          "type": "uint256"
        }
      ],
      "stateMutability": "nonpayable",
      "type": "constructor"
    },
    {
      "inputs": [],
      "name": "admin",
      "outputs": [
        {
          "internalType": "address",
          "name": "",
          "type": "address"
        }
      ],
      "stateMutability": "view",
      "type": "function",
      "constant": true
    },
    {
      "inputs": [
        {
          "internalType": "uint256",
          "name": "",
          "type": "uint256"
        }
      ],
      "name": "candidates",
      "outputs": [
        {
          "internalType": "string",
          "name": "name",
          "type": "string"
        },
        {
          "internalType": "string",
          "name": "partyName",
          "type": "string"
        },
        {
          "internalType": "uint256",
          "name": "voteCount",
          "type": "uint256"
        }
      ],
      "stateMutability": "view",
      "type": "function",
      "constant": true
    },
    {
      "inputs": [],
      "name": "endTime",
      "outputs": [
        {
          "internalType": "uint256",
          "name": "",
          "type": "uint256"
        }
      ],
      "stateMutability": "view",
      "type": "function",
      "constant": true
    },
    {
      "inputs": [],
      "name": "startTime",
      "outputs": [
        {
          "internalType": "uint256",
          "name": "",
          "type": "uint256"
        }
      ],
      "stateMutability": "view",
      "type": "function",
      "constant": true
    },
    {
      "inputs": [
        {
          "internalType": "address",
          "name": "",
          "type": "address"
        }
      ],
      "name": "voters",
      "outputs": [
        {
          "internalType": "bool",
          "name": "voted",
          "type": "bool"
        },
        {
          "internalType": "address",
          "name": "delegate",
          "type": "address"
        },
        {
          "internalType": "uint256",
          "name": "vote",
          "type": "uint256"
        },
        {
          "internalType": "bool",
          "name": "hasAccess",
          "type": "bool"
        }
      ],
      "stateMutability": "view",
      "type": "function",
      "constant": true
    },
    {
      "inputs": [
        {
          "internalType": "string[]",
          "name": "candidatesList",
          "type": "string[]"
        },
        {
          "internalType": "string[]",
          "name": "candidateParty",
          "type": "string[]"
        }
      ],
      "name": "addCandidates",
      "outputs": [],
      "stateMutability": "nonpayable",
      "type": "function"
    },
    {
      "inputs": [
        {
          "internalType": "address[]",
          "name": "voterAddresses",
          "type": "address[]"
        }
      ],
      "name": "giveRightToVote",
      "outputs": [],
      "stateMutability": "nonpayable",
      "type": "function"
    },
    {
      "inputs": [
        {
          "internalType": "uint256",
          "name": "candidate",
          "type": "uint256"
        }
      ],
      "name": "vote",
      "outputs": [],
      "stateMutability": "nonpayable",
      "type": "function"
    },
    {
      "inputs": [],
      "name": "results",
      "outputs": [
        {
          "components": [
            {
              "internalType": "string",
              "name": "name",
              "type": "string"
            },
            {
              "internalType": "string",
              "name": "partyName",
              "type": "string"
            },
            {
              "internalType": "uint256",
              "name": "voteCount",
              "type": "uint256"
            }
          ],
          "internalType": "struct Election.Candidate[]",
          "name": "",
          "type": "tuple[]"
        }
      ],
      "stateMutability": "view",
      "type": "function",
      "constant": true
    }
  ],
  "bytecode": "0x60806040523480156200001157600080fd5b50604051620019c3380380620019c38339818101604052810190620000379190620000cd565b336000806101000a81548173ffffffffffffffffffffffffffffffffffffffff021916908373ffffffffffffffffffffffffffffffffffffffff1602179055508160018190555080600281905550505062000114565b600080fd5b6000819050919050565b620000a78162000092565b8114620000b357600080fd5b50565b600081519050620000c7816200009c565b92915050565b60008060408385031215620000e757620000e66200008d565b5b6000620000f785828601620000b6565b92505060206200010a85828601620000b6565b9150509250929050565b61189f80620001246000396000f3fe608060405234801561001057600080fd5b50600436106100935760003560e01c80637e99992b116100665780637e99992b14610122578063858168291461013e578063a3ec138d1461015a578063a48bdb7c1461018d578063f851a440146101ab57610093565b80630121b93f146100985780633197cbb6146100b45780633477ee2e146100d257806378e9792514610104575b600080fd5b6100b260048036038101906100ad9190610b5a565b6101c9565b005b6100bc610365565b6040516100c99190610b96565b60405180910390f35b6100ec60048036038101906100e79190610b5a565b61036b565b6040516100fb93929190610c41565b60405180910390f35b61010c6104b5565b6040516101199190610b96565b60405180910390f35b61013c60048036038101906101379190610ceb565b6104bb565b005b61015860048036038101906101539190610dc2565b610702565b005b610174600480360381019061016f9190610e6d565b6108ff565b6040516101849493929190610ec4565b60405180910390f35b610195610969565b6040516101a2919061107b565b60405180910390f35b6101b3610af6565b6040516101c0919061109d565b60405180910390f35b6000600360003373ffffffffffffffffffffffffffffffffffffffff1673ffffffffffffffffffffffffffffffffffffffff16815260200190815260200160002090506001544211801561021e575060025442105b61025d576040517f08c379a00000000000000000000000000000000000000000000000000000000081526004016102549061112a565b60405180910390fd5b8060000160009054906101000a900460ff16156102af576040517f08c379a00000000000000000000000000000000000000000000000000000000081526004016102a690611196565b60405180910390fd5b8060020160009054906101000a900460ff16610300576040517f08c379a00000000000000000000000000000000000000000000000000000000081526004016102f790611202565b60405180910390fd5b60018160000160006101000a81548160ff0219169083151502179055508181600101819055506004828154811061033a57610339611222565b5b9060005260206000209060030201600201600081548092919061035c90611280565b91905055505050565b60025481565b6004818154811061037b57600080fd5b906000526020600020906003020160009150905080600001805461039e906112f7565b80601f01602080910402602001604051908101604052809291908181526020018280546103ca906112f7565b80156104175780601f106103ec57610100808354040283529160200191610417565b820191906000526020600020905b8154815290600101906020018083116103fa57829003601f168201915b50505050509080600101805461042c906112f7565b80601f0160208091040260200160405190810160405280929190818152602001828054610458906112f7565b80156104a55780601f1061047a576101008083540402835291602001916104a5565b820191906000526020600020905b81548152906001019060200180831161048857829003601f168201915b5050505050908060020154905083565b60015481565b60015442106104ff576040517f08c379a00000000000000000000000000000000000000000000000000000000081526004016104f69061139a565b60405180910390fd5b60008054906101000a900473ffffffffffffffffffffffffffffffffffffffff1673ffffffffffffffffffffffffffffffffffffffff163373ffffffffffffffffffffffffffffffffffffffff161461058d576040517f08c379a000000000000000000000000000000000000000000000000000000000815260040161058490611406565b60405180910390fd5b60005b848490508110156106fb57600460405180606001604052808787858181106105bb576105ba611222565b5b90506020028101906105cd9190611435565b8080601f016020809104026020016040519081016040528093929190818152602001838380828437600081840152601f19601f82011690508083019250505050505050815260200185858581811061062857610627611222565b5b905060200281019061063a9190611435565b8080601f016020809104026020016040519081016040528093929190818152602001838380828437600081840152601f19601f8201169050808301925050505050505081526020016000815250908060018154018082558091505060019003906000526020600020906003020160009091909190915060008201518160000190816106c59190611673565b5060208201518160010190816106db9190611673565b5060408201518160020155505080806106f390611280565b915050610590565b5050505050565b6001544210610746576040517f08c379a000000000000000000000000000000000000000000000000000000000815260040161073d906117b7565b60405180910390fd5b60008054906101000a900473ffffffffffffffffffffffffffffffffffffffff1673ffffffffffffffffffffffffffffffffffffffff163373ffffffffffffffffffffffffffffffffffffffff16146107d4576040517f08c379a00000000000000000000000000000000000000000000000000000000081526004016107cb90611849565b60405180910390fd5b60005b828290508110156108fa5760001515600360008585858181106107fd576107fc611222565b5b90506020020160208101906108129190610e6d565b73ffffffffffffffffffffffffffffffffffffffff1673ffffffffffffffffffffffffffffffffffffffff16815260200190815260200160002060020160009054906101000a900460ff161515036108e75760016003600085858581811061087d5761087c611222565b5b90506020020160208101906108929190610e6d565b73ffffffffffffffffffffffffffffffffffffffff1673ffffffffffffffffffffffffffffffffffffffff16815260200190815260200160002060020160006101000a81548160ff0219169083151502179055505b80806108f290611280565b9150506107d7565b505050565b60036020528060005260406000206000915090508060000160009054906101000a900460ff16908060000160019054906101000a900473ffffffffffffffffffffffffffffffffffffffff16908060010154908060020160009054906101000a900460ff16905084565b60606004805480602002602001604051908101604052809291908181526020016000905b82821015610aed57838290600052602060002090600302016040518060600160405290816000820180546109c0906112f7565b80601f01602080910402602001604051908101604052809291908181526020018280546109ec906112f7565b8015610a395780601f10610a0e57610100808354040283529160200191610a39565b820191906000526020600020905b815481529060010190602001808311610a1c57829003601f168201915b50505050508152602001600182018054610a52906112f7565b80601f0160208091040260200160405190810160405280929190818152602001828054610a7e906112f7565b8015610acb5780601f10610aa057610100808354040283529160200191610acb565b820191906000526020600020905b815481529060010190602001808311610aae57829003601f168201915b505050505081526020016002820154815250508152602001906001019061098d565b50505050905090565b60008054906101000a900473ffffffffffffffffffffffffffffffffffffffff1681565b600080fd5b600080fd5b6000819050919050565b610b3781610b24565b8114610b4257600080fd5b50565b600081359050610b5481610b2e565b92915050565b600060208284031215610b7057610b6f610b1a565b5b6000610b7e84828501610b45565b91505092915050565b610b9081610b24565b82525050565b6000602082019050610bab6000830184610b87565b92915050565b600081519050919050565b600082825260208201905092915050565b60005b83811015610beb578082015181840152602081019050610bd0565b60008484015250505050565b6000601f19601f8301169050919050565b6000610c1382610bb1565b610c1d8185610bbc565b9350610c2d818560208601610bcd565b610c3681610bf7565b840191505092915050565b60006060820190508181036000830152610c5b8186610c08565b90508181036020830152610c6f8185610c08565b9050610c7e6040830184610b87565b949350505050565b600080fd5b600080fd5b600080fd5b60008083601f840112610cab57610caa610c86565b5b8235905067ffffffffffffffff811115610cc857610cc7610c8b565b5b602083019150836020820283011115610ce457610ce3610c90565b5b9250929050565b60008060008060408587031215610d0557610d04610b1a565b5b600085013567ffffffffffffffff811115610d2357610d22610b1f565b5b610d2f87828801610c95565b9450945050602085013567ffffffffffffffff811115610d5257610d51610b1f565b5b610d5e87828801610c95565b925092505092959194509250565b60008083601f840112610d8257610d81610c86565b5b8235905067ffffffffffffffff811115610d9f57610d9e610c8b565b5b602083019150836020820283011115610dbb57610dba610c90565b5b9250929050565b60008060208385031215610dd957610dd8610b1a565b5b600083013567ffffffffffffffff811115610df757610df6610b1f565b5b610e0385828601610d6c565b92509250509250929050565b600073ffffffffffffffffffffffffffffffffffffffff82169050919050565b6000610e3a82610e0f565b9050919050565b610e4a81610e2f565b8114610e5557600080fd5b50565b600081359050610e6781610e41565b92915050565b600060208284031215610e8357610e82610b1a565b5b6000610e9184828501610e58565b91505092915050565b60008115159050919050565b610eaf81610e9a565b82525050565b610ebe81610e2f565b82525050565b6000608082019050610ed96000830187610ea6565b610ee66020830186610eb5565b610ef36040830185610b87565b610f006060830184610ea6565b95945050505050565b600081519050919050565b600082825260208201905092915050565b6000819050602082019050919050565b600082825260208201905092915050565b6000610f5182610bb1565b610f5b8185610f35565b9350610f6b818560208601610bcd565b610f7481610bf7565b840191505092915050565b610f8881610b24565b82525050565b60006060830160008301518482036000860152610fab8282610f46565b91505060208301518482036020860152610fc58282610f46565b9150506040830151610fda6040860182610f7f565b508091505092915050565b6000610ff18383610f8e565b905092915050565b6000602082019050919050565b600061101182610f09565b61101b8185610f14565b93508360208202850161102d85610f25565b8060005b85811015611069578484038952815161104a8582610fe5565b945061105583610ff9565b925060208a01995050600181019050611031565b50829750879550505050505092915050565b600060208201905081810360008301526110958184611006565b905092915050565b60006020820190506110b26000830184610eb5565b92915050565b7f43616e277420766f7465206f7574736964652074686520656c656374696f6e2060008201527f696e74657276616c2e0000000000000000000000000000000000000000000000602082015250565b6000611114602983610bbc565b915061111f826110b8565b604082019050919050565b6000602082019050818103600083015261114381611107565b9050919050565b7f416c726561647920766f7465642e000000000000000000000000000000000000600082015250565b6000611180600e83610bbc565b915061118b8261114a565b602082019050919050565b600060208201905081810360008301526111af81611173565b9050919050565b7f4e6f206163636573732e00000000000000000000000000000000000000000000600082015250565b60006111ec600a83610bbc565b91506111f7826111b6565b602082019050919050565b6000602082019050818103600083015261121b816111df565b9050919050565b7f4e487b7100000000000000000000000000000000000000000000000000000000600052603260045260246000fd5b7f4e487b7100000000000000000000000000000000000000000000000000000000600052601160045260246000fd5b600061128b82610b24565b91507fffffffffffffffffffffffffffffffffffffffffffffffffffffffffffffffff82036112bd576112bc611251565b5b600182019050919050565b7f4e487b7100000000000000000000000000000000000000000000000000000000600052602260045260246000fd5b6000600282049050600182168061130f57607f821691505b602082108103611322576113216112c8565b5b50919050565b7f43616e2774206164642063616e64696461746520616674657220656c6563746960008201527f6f6e207374617274732e00000000000000000000000000000000000000000000602082015250565b6000611384602a83610bbc565b915061138f82611328565b604082019050919050565b600060208201905081810360008301526113b381611377565b9050919050565b7f4f6e6c792061646d696e2063616e206164642063616e646964617465732e0000600082015250565b60006113f0601e83610bbc565b91506113fb826113ba565b602082019050919050565b6000602082019050818103600083015261141f816113e3565b9050919050565b600080fd5b600080fd5b600080fd5b6000808335600160200384360303811261145257611451611426565b5b80840192508235915067ffffffffffffffff8211156114745761147361142b565b5b6020830192506001820236038313156114905761148f611430565b5b509250929050565b7f4e487b7100000000000000000000000000000000000000000000000000000000600052604160045260246000fd5b60008190508160005260206000209050919050565b60006020601f8301049050919050565b600082821b905092915050565b6000600883026115297fffffffffffffffffffffffffffffffffffffffffffffffffffffffffffffffff826114ec565b61153386836114ec565b95508019841693508086168417925050509392505050565b6000819050919050565b600061157061156b61156684610b24565b61154b565b610b24565b9050919050565b6000819050919050565b61158a83611555565b61159e61159682611577565b8484546114f9565b825550505050565b600090565b6115b36115a6565b6115be818484611581565b505050565b5b818110156115e2576115d76000826115ab565b6001810190506115c4565b5050565b601f821115611627576115f8816114c7565b611601846114dc565b81016020851015611610578190505b61162461161c856114dc565b8301826115c3565b50505b505050565b600082821c905092915050565b600061164a6000198460080261162c565b1980831691505092915050565b60006116638383611639565b9150826002028217905092915050565b61167c82610bb1565b67ffffffffffffffff81111561169557611694611498565b5b61169f82546112f7565b6116aa8282856115e6565b600060209050601f8311600181146116dd57600084156116cb578287015190505b6116d58582611657565b86555061173d565b601f1984166116eb866114c7565b60005b82811015611713578489015182556001820191506020850194506020810190506116ee565b86831015611730578489015161172c601f891682611639565b8355505b6001600288020188555050505b505050505050565b7f43616e27742061646420766f74657220616674657220656c656374696f6e207360008201527f74617274732e0000000000000000000000000000000000000000000000000000602082015250565b60006117a1602683610bbc565b91506117ac82611745565b604082019050919050565b600060208201905081810360008301526117d081611794565b9050919050565b7f4f6e6c792061646d696e2063616e206769766520726967687420746f20766f7460008201527f652e000000000000000000000000000000000000000000000000000000000000602082015250565b6000611833602283610bbc565b915061183e826117d7565b604082019050919050565b6000602082019050818103600083015261186281611826565b905091905056fea26469706673582212206b7ad9e859533dc3d027a769da305958eeb250bc1ea7e2a2ac5da802b4abe53664736f6c63430008110033",
  "immutableReferences": {},
  "source": "// SPDX-License-Identifier: GPL-3.0\r\npragma solidity >=0.7.0 <0.9.0;\r\n\r\ncontract Election {\r\n\r\n    struct Voter {\r\n        bool voted;  \r\n        address delegate;\r\n        uint vote;   \r\n        bool hasAccess;\r\n    }\r\n\r\n    struct Candidate {\r\n        string name;  \r\n        string partyName;   \r\n        uint voteCount; \r\n    }\r\n\r\n    address public admin;\r\n\r\n    uint public startTime;\r\n    uint public endTime;\r\n\r\n    mapping(address => Voter) public voters;\r\n\r\n    Candidate[] public candidates;\r\n\r\n    constructor(uint _startTime,uint _endTime) {\r\n        admin = msg.sender;\r\n        startTime = _startTime;\r\n        endTime = _endTime;\r\n    }\r\n\r\n    function addCandidates(string[] calldata candidatesList, string[] calldata candidateParty) external {\r\n        require(\r\n            block.timestamp < startTime,\r\n            \"Can't add candidate after election starts.\"\r\n        );\r\n        \r\n        require(\r\n            msg.sender == admin,\r\n            \"Only admin can add candidates.\"\r\n        );\r\n        \r\n        for (uint i = 0; i < candidatesList.length; i++) {\r\n            candidates.push(Candidate({\r\n                name: candidatesList[i],\r\n                partyName: candidateParty[i],\r\n                voteCount: 0\r\n            }));\r\n        }\r\n    }\r\n\r\n    function giveRightToVote(address[] calldata voterAddresses) external {\r\n        require(\r\n            block.timestamp < startTime,\r\n            \"Can't add voter after election starts.\"\r\n        );\r\n       \r\n        require(\r\n            msg.sender == admin,\r\n            \"Only admin can give right to vote.\"\r\n        );\r\n\r\n        for (uint p = 0; p < voterAddresses.length; p++) {\r\n            if (voters[voterAddresses[p]].hasAccess == false) {\r\n                voters[voterAddresses[p]].hasAccess = true;\r\n            }\r\n        }\r\n    }\r\n\r\n    function vote(uint candidate) external {\r\n        Voter storage sender = voters[msg.sender];\r\n        require(\r\n            block.timestamp > startTime && block.timestamp < endTime,\r\n            \"Can't vote outside the election interval.\"\r\n        );\r\n        require(!sender.voted, \"Already voted.\");\r\n        require(sender.hasAccess, \"No access.\");\r\n        sender.voted = true;\r\n        sender.vote = candidate;\r\n        candidates[candidate].voteCount++;\r\n    }\r\n\r\n    function results() public view returns (Candidate[] memory) {\r\n        return candidates;\r\n    }\r\n  \r\n}",
  "sourcePath": "C:\\Users\\user\\Desktop\\SE Factory\\Final Project\\vote-chain\\frontend\\blockchain\\contracts\\Election.sol",
  "compiler": {
    "name": "solc",
    "version": "0.8.17+commit.8df45f5f.Emscripten.clang"
  },
  "schemaVersion": "3.4.10",
  "updatedAt": "2022-11-13T08:29:45.563Z",
  "networkType": "ethereum",
  "devdoc": {
    "kind": "dev",
    "methods": {},
    "version": 1
  },
  "userdoc": {
    "kind": "user",
    "methods": {},
    "version": 1
  }
}