{
  "contractName": "Election",
  "abi": [
    {
      "inputs": [
        {
          "internalType": "uint256",
          "name": "_startTime",
          "type": "uint256"
        },
        {
          "internalType": "uint256",
          "name": "_endTime",
          "type": "uint256"
        }
      ],
      "stateMutability": "nonpayable",
      "type": "constructor"
    },
    {
      "inputs": [],
      "name": "admin",
      "outputs": [
        {
          "internalType": "address",
          "name": "",
          "type": "address"
        }
      ],
      "stateMutability": "view",
      "type": "function",
      "constant": true
    },
    {
      "inputs": [
        {
          "internalType": "uint256",
          "name": "",
          "type": "uint256"
        }
      ],
      "name": "candidates",
      "outputs": [
        {
          "internalType": "string",
          "name": "name",
          "type": "string"
        },
        {
          "internalType": "string",
          "name": "partyName",
          "type": "string"
        },
        {
          "internalType": "uint256",
          "name": "voteCount",
          "type": "uint256"
        }
      ],
      "stateMutability": "view",
      "type": "function",
      "constant": true
    },
    {
      "inputs": [],
      "name": "endTime",
      "outputs": [
        {
          "internalType": "uint256",
          "name": "",
          "type": "uint256"
        }
      ],
      "stateMutability": "view",
      "type": "function",
      "constant": true
    },
    {
      "inputs": [],
      "name": "startTime",
      "outputs": [
        {
          "internalType": "uint256",
          "name": "",
          "type": "uint256"
        }
      ],
      "stateMutability": "view",
      "type": "function",
      "constant": true
    },
    {
      "inputs": [],
      "name": "votedVotersNumber",
      "outputs": [
        {
          "internalType": "uint256",
          "name": "",
          "type": "uint256"
        }
      ],
      "stateMutability": "view",
      "type": "function",
      "constant": true
    },
    {
      "inputs": [
        {
          "internalType": "address",
          "name": "",
          "type": "address"
        }
      ],
      "name": "voters",
      "outputs": [
        {
          "internalType": "bool",
          "name": "voted",
          "type": "bool"
        },
        {
          "internalType": "address",
          "name": "delegate",
          "type": "address"
        },
        {
          "internalType": "uint256",
          "name": "vote",
          "type": "uint256"
        },
        {
          "internalType": "bool",
          "name": "hasAccess",
          "type": "bool"
        }
      ],
      "stateMutability": "view",
      "type": "function",
      "constant": true
    },
    {
      "inputs": [],
      "name": "votersNumber",
      "outputs": [
        {
          "internalType": "uint256",
          "name": "",
          "type": "uint256"
        }
      ],
      "stateMutability": "view",
      "type": "function",
      "constant": true
    },
    {
      "inputs": [
        {
          "internalType": "string[]",
          "name": "candidatesList",
          "type": "string[]"
        },
        {
          "internalType": "string[]",
          "name": "candidateParty",
          "type": "string[]"
        }
      ],
      "name": "addCandidates",
      "outputs": [],
      "stateMutability": "nonpayable",
      "type": "function"
    },
    {
      "inputs": [
        {
          "internalType": "address[]",
          "name": "voterAddresses",
          "type": "address[]"
        }
      ],
      "name": "giveRightToVote",
      "outputs": [],
      "stateMutability": "nonpayable",
      "type": "function"
    },
    {
      "inputs": [
        {
          "internalType": "uint256",
          "name": "candidate",
          "type": "uint256"
        }
      ],
      "name": "vote",
      "outputs": [],
      "stateMutability": "nonpayable",
      "type": "function"
    },
    {
      "inputs": [],
      "name": "results",
      "outputs": [
        {
          "components": [
            {
              "internalType": "string",
              "name": "name",
              "type": "string"
            },
            {
              "internalType": "string",
              "name": "partyName",
              "type": "string"
            },
            {
              "internalType": "uint256",
              "name": "voteCount",
              "type": "uint256"
            }
          ],
          "internalType": "struct Election.Candidate[]",
          "name": "",
          "type": "tuple[]"
        }
      ],
      "stateMutability": "view",
      "type": "function",
      "constant": true
    },
    {
      "inputs": [],
      "name": "viewVoters",
      "outputs": [
        {
          "internalType": "uint256[2]",
          "name": "",
          "type": "uint256[2]"
        }
      ],
      "stateMutability": "view",
      "type": "function",
      "constant": true
    }
  ],
  "bytecode": "0x6080604052600060035560006004553480156200001b57600080fd5b5060405162001bfc38038062001bfc8339818101604052810190620000419190620000d7565b336000806101000a81548173ffffffffffffffffffffffffffffffffffffffff021916908373ffffffffffffffffffffffffffffffffffffffff160217905550816001819055508060028190555050506200011e565b600080fd5b6000819050919050565b620000b1816200009c565b8114620000bd57600080fd5b50565b600081519050620000d181620000a6565b92915050565b60008060408385031215620000f157620000f062000097565b5b60006200010185828601620000c0565b92505060206200011485828601620000c0565b9150509250929050565b611ace806200012e6000396000f3fe608060405234801561001057600080fd5b50600436106100b45760003560e01c80637e99992b116100715780637e99992b1461017f578063858168291461019b5780639346a95e146101b7578063a3ec138d146101d5578063a48bdb7c14610208578063f851a44014610226576100b4565b80630121b93f146100b957806310fe4067146100d55780631e5839e4146100f35780633197cbb6146101115780633477ee2e1461012f57806378e9792514610161575b600080fd5b6100d360048036038101906100ce9190610c6a565b610244565b005b6100dd6103f8565b6040516100ea9190610ca6565b60405180910390f35b6100fb6103fe565b6040516101089190610ca6565b60405180910390f35b610119610404565b6040516101269190610ca6565b60405180910390f35b61014960048036038101906101449190610c6a565b61040a565b60405161015893929190610d51565b60405180910390f35b610169610554565b6040516101769190610ca6565b60405180910390f35b61019960048036038101906101949190610dfb565b61055a565b005b6101b560048036038101906101b09190610ed2565b6107a1565b005b6101bf6109ba565b6040516101cc9190610fca565b60405180910390f35b6101ef60048036038101906101ea9190611043565b6109ed565b6040516101ff949392919061109a565b60405180910390f35b610210610a57565b60405161021d9190611242565b60405180910390f35b61022e610be4565b60405161023b9190611264565b60405180910390f35b6000600560003373ffffffffffffffffffffffffffffffffffffffff1673ffffffffffffffffffffffffffffffffffffffff168152602001908152602001600020905060015442118015610299575060025442105b6102d8576040517f08c379a00000000000000000000000000000000000000000000000000000000081526004016102cf906112f1565b60405180910390fd5b8060000160009054906101000a900460ff161561032a576040517f08c379a00000000000000000000000000000000000000000000000000000000081526004016103219061135d565b60405180910390fd5b8060020160009054906101000a900460ff1661037b576040517f08c379a0000000000000000000000000000000000000000000000000000000008152600401610372906113c9565b60405180910390fd5b60018160000160006101000a81548160ff021916908315150217905550818160010181905550600682815481106103b5576103b46113e9565b5b906000526020600020906003020160020160008154809291906103d790611447565b9190505550600460008154809291906103ef90611447565b91905055505050565b60045481565b60035481565b60025481565b6006818154811061041a57600080fd5b906000526020600020906003020160009150905080600001805461043d906114be565b80601f0160208091040260200160405190810160405280929190818152602001828054610469906114be565b80156104b65780601f1061048b576101008083540402835291602001916104b6565b820191906000526020600020905b81548152906001019060200180831161049957829003601f168201915b5050505050908060010180546104cb906114be565b80601f01602080910402602001604051908101604052809291908181526020018280546104f7906114be565b80156105445780601f1061051957610100808354040283529160200191610544565b820191906000526020600020905b81548152906001019060200180831161052757829003601f168201915b5050505050908060020154905083565b60015481565b600154421061059e576040517f08c379a000000000000000000000000000000000000000000000000000000000815260040161059590611561565b60405180910390fd5b60008054906101000a900473ffffffffffffffffffffffffffffffffffffffff1673ffffffffffffffffffffffffffffffffffffffff163373ffffffffffffffffffffffffffffffffffffffff161461062c576040517f08c379a0000000000000000000000000000000000000000000000000000000008152600401610623906115cd565b60405180910390fd5b60005b8484905081101561079a576006604051806060016040528087878581811061065a576106596113e9565b5b905060200281019061066c91906115fc565b8080601f016020809104026020016040519081016040528093929190818152602001838380828437600081840152601f19601f8201169050808301925050505050505081526020018585858181106106c7576106c66113e9565b5b90506020028101906106d991906115fc565b8080601f016020809104026020016040519081016040528093929190818152602001838380828437600081840152601f19601f820116905080830192505050505050508152602001600081525090806001815401808255809150506001900390600052602060002090600302016000909190919091506000820151816000019081610764919061183a565b50602082015181600101908161077a919061183a565b50604082015181600201555050808061079290611447565b91505061062f565b5050505050565b60015442106107e5576040517f08c379a00000000000000000000000000000000000000000000000000000000081526004016107dc9061197e565b60405180910390fd5b60008054906101000a900473ffffffffffffffffffffffffffffffffffffffff1673ffffffffffffffffffffffffffffffffffffffff163373ffffffffffffffffffffffffffffffffffffffff1614610873576040517f08c379a000000000000000000000000000000000000000000000000000000000815260040161086a90611a10565b60405180910390fd5b60005b8282905081101561099957600015156005600085858581811061089c5761089b6113e9565b5b90506020020160208101906108b19190611043565b73ffffffffffffffffffffffffffffffffffffffff1673ffffffffffffffffffffffffffffffffffffffff16815260200190815260200160002060020160009054906101000a900460ff161515036109865760016005600085858581811061091c5761091b6113e9565b5b90506020020160208101906109319190611043565b73ffffffffffffffffffffffffffffffffffffffff1673ffffffffffffffffffffffffffffffffffffffff16815260200190815260200160002060020160006101000a81548160ff0219169083151502179055505b808061099190611447565b915050610876565b5081819050600360008282546109af9190611a30565b925050819055505050565b6109c2610c08565b604051806040016040528060045481526020016004546003546109e59190611a64565b815250905090565b60056020528060005260406000206000915090508060000160009054906101000a900460ff16908060000160019054906101000a900473ffffffffffffffffffffffffffffffffffffffff16908060010154908060020160009054906101000a900460ff16905084565b60606006805480602002602001604051908101604052809291908181526020016000905b82821015610bdb5783829060005260206000209060030201604051806060016040529081600082018054610aae906114be565b80601f0160208091040260200160405190810160405280929190818152602001828054610ada906114be565b8015610b275780601f10610afc57610100808354040283529160200191610b27565b820191906000526020600020905b815481529060010190602001808311610b0a57829003601f168201915b50505050508152602001600182018054610b40906114be565b80601f0160208091040260200160405190810160405280929190818152602001828054610b6c906114be565b8015610bb95780601f10610b8e57610100808354040283529160200191610bb9565b820191906000526020600020905b815481529060010190602001808311610b9c57829003601f168201915b5050505050815260200160028201548152505081526020019060010190610a7b565b50505050905090565b60008054906101000a900473ffffffffffffffffffffffffffffffffffffffff1681565b6040518060400160405280600290602082028036833780820191505090505090565b600080fd5b600080fd5b6000819050919050565b610c4781610c34565b8114610c5257600080fd5b50565b600081359050610c6481610c3e565b92915050565b600060208284031215610c8057610c7f610c2a565b5b6000610c8e84828501610c55565b91505092915050565b610ca081610c34565b82525050565b6000602082019050610cbb6000830184610c97565b92915050565b600081519050919050565b600082825260208201905092915050565b60005b83811015610cfb578082015181840152602081019050610ce0565b60008484015250505050565b6000601f19601f8301169050919050565b6000610d2382610cc1565b610d2d8185610ccc565b9350610d3d818560208601610cdd565b610d4681610d07565b840191505092915050565b60006060820190508181036000830152610d6b8186610d18565b90508181036020830152610d7f8185610d18565b9050610d8e6040830184610c97565b949350505050565b600080fd5b600080fd5b600080fd5b60008083601f840112610dbb57610dba610d96565b5b8235905067ffffffffffffffff811115610dd857610dd7610d9b565b5b602083019150836020820283011115610df457610df3610da0565b5b9250929050565b60008060008060408587031215610e1557610e14610c2a565b5b600085013567ffffffffffffffff811115610e3357610e32610c2f565b5b610e3f87828801610da5565b9450945050602085013567ffffffffffffffff811115610e6257610e61610c2f565b5b610e6e87828801610da5565b925092505092959194509250565b60008083601f840112610e9257610e91610d96565b5b8235905067ffffffffffffffff811115610eaf57610eae610d9b565b5b602083019150836020820283011115610ecb57610eca610da0565b5b9250929050565b60008060208385031215610ee957610ee8610c2a565b5b600083013567ffffffffffffffff811115610f0757610f06610c2f565b5b610f1385828601610e7c565b92509250509250929050565b600060029050919050565b600081905092915050565b6000819050919050565b610f4881610c34565b82525050565b6000610f5a8383610f3f565b60208301905092915050565b6000602082019050919050565b610f7c81610f1f565b610f868184610f2a565b9250610f9182610f35565b8060005b83811015610fc2578151610fa98782610f4e565b9650610fb483610f66565b925050600181019050610f95565b505050505050565b6000604082019050610fdf6000830184610f73565b92915050565b600073ffffffffffffffffffffffffffffffffffffffff82169050919050565b600061101082610fe5565b9050919050565b61102081611005565b811461102b57600080fd5b50565b60008135905061103d81611017565b92915050565b60006020828403121561105957611058610c2a565b5b60006110678482850161102e565b91505092915050565b60008115159050919050565b61108581611070565b82525050565b61109481611005565b82525050565b60006080820190506110af600083018761107c565b6110bc602083018661108b565b6110c96040830185610c97565b6110d6606083018461107c565b95945050505050565b600081519050919050565b600082825260208201905092915050565b6000819050602082019050919050565b600082825260208201905092915050565b600061112782610cc1565b611131818561110b565b9350611141818560208601610cdd565b61114a81610d07565b840191505092915050565b60006060830160008301518482036000860152611172828261111c565b9150506020830151848203602086015261118c828261111c565b91505060408301516111a16040860182610f3f565b508091505092915050565b60006111b88383611155565b905092915050565b6000602082019050919050565b60006111d8826110df565b6111e281856110ea565b9350836020820285016111f4856110fb565b8060005b85811015611230578484038952815161121185826111ac565b945061121c836111c0565b925060208a019950506001810190506111f8565b50829750879550505050505092915050565b6000602082019050818103600083015261125c81846111cd565b905092915050565b6000602082019050611279600083018461108b565b92915050565b7f43616e277420766f7465206f7574736964652074686520656c656374696f6e2060008201527f696e74657276616c2e0000000000000000000000000000000000000000000000602082015250565b60006112db602983610ccc565b91506112e68261127f565b604082019050919050565b6000602082019050818103600083015261130a816112ce565b9050919050565b7f416c726561647920766f7465642e000000000000000000000000000000000000600082015250565b6000611347600e83610ccc565b915061135282611311565b602082019050919050565b600060208201905081810360008301526113768161133a565b9050919050565b7f4e6f206163636573732e00000000000000000000000000000000000000000000600082015250565b60006113b3600a83610ccc565b91506113be8261137d565b602082019050919050565b600060208201905081810360008301526113e2816113a6565b9050919050565b7f4e487b7100000000000000000000000000000000000000000000000000000000600052603260045260246000fd5b7f4e487b7100000000000000000000000000000000000000000000000000000000600052601160045260246000fd5b600061145282610c34565b91507fffffffffffffffffffffffffffffffffffffffffffffffffffffffffffffffff820361148457611483611418565b5b600182019050919050565b7f4e487b7100000000000000000000000000000000000000000000000000000000600052602260045260246000fd5b600060028204905060018216806114d657607f821691505b6020821081036114e9576114e861148f565b5b50919050565b7f43616e2774206164642063616e64696461746520616674657220656c6563746960008201527f6f6e207374617274732e00000000000000000000000000000000000000000000602082015250565b600061154b602a83610ccc565b9150611556826114ef565b604082019050919050565b6000602082019050818103600083015261157a8161153e565b9050919050565b7f4f6e6c792061646d696e2063616e206164642063616e646964617465732e0000600082015250565b60006115b7601e83610ccc565b91506115c282611581565b602082019050919050565b600060208201905081810360008301526115e6816115aa565b9050919050565b600080fd5b600080fd5b600080fd5b60008083356001602003843603038112611619576116186115ed565b5b80840192508235915067ffffffffffffffff82111561163b5761163a6115f2565b5b602083019250600182023603831315611657576116566115f7565b5b509250929050565b7f4e487b7100000000000000000000000000000000000000000000000000000000600052604160045260246000fd5b60008190508160005260206000209050919050565b60006020601f8301049050919050565b600082821b905092915050565b6000600883026116f07fffffffffffffffffffffffffffffffffffffffffffffffffffffffffffffffff826116b3565b6116fa86836116b3565b95508019841693508086168417925050509392505050565b6000819050919050565b600061173761173261172d84610c34565b611712565b610c34565b9050919050565b6000819050919050565b6117518361171c565b61176561175d8261173e565b8484546116c0565b825550505050565b600090565b61177a61176d565b611785818484611748565b505050565b5b818110156117a95761179e600082611772565b60018101905061178b565b5050565b601f8211156117ee576117bf8161168e565b6117c8846116a3565b810160208510156117d7578190505b6117eb6117e3856116a3565b83018261178a565b50505b505050565b600082821c905092915050565b6000611811600019846008026117f3565b1980831691505092915050565b600061182a8383611800565b9150826002028217905092915050565b61184382610cc1565b67ffffffffffffffff81111561185c5761185b61165f565b5b61186682546114be565b6118718282856117ad565b600060209050601f8311600181146118a45760008415611892578287015190505b61189c858261181e565b865550611904565b601f1984166118b28661168e565b60005b828110156118da578489015182556001820191506020850194506020810190506118b5565b868310156118f757848901516118f3601f891682611800565b8355505b6001600288020188555050505b505050505050565b7f43616e27742061646420766f74657220616674657220656c656374696f6e207360008201527f74617274732e0000000000000000000000000000000000000000000000000000602082015250565b6000611968602683610ccc565b91506119738261190c565b604082019050919050565b600060208201905081810360008301526119978161195b565b9050919050565b7f4f6e6c792061646d696e2063616e206769766520726967687420746f20766f7460008201527f652e000000000000000000000000000000000000000000000000000000000000602082015250565b60006119fa602283610ccc565b9150611a058261199e565b604082019050919050565b60006020820190508181036000830152611a29816119ed565b9050919050565b6000611a3b82610c34565b9150611a4683610c34565b9250828201905080821115611a5e57611a5d611418565b5b92915050565b6000611a6f82610c34565b9150611a7a83610c34565b9250828203905081811115611a9257611a91611418565b5b9291505056fea264697066735822122035e83bb35ed218415348bafd8e39fa66b2ce665174d88d52a67f60abd0b0d5c664736f6c63430008110033",
  "immutableReferences": {},
  "source": "// SPDX-License-Identifier: GPL-3.0\r\npragma solidity >=0.7.0 <0.9.0;\r\n\r\ncontract Election {\r\n\r\n    struct Voter {\r\n        bool voted;  \r\n        address delegate;\r\n        uint vote;   \r\n        bool hasAccess;\r\n    }\r\n\r\n    struct Candidate {\r\n        string name;  \r\n        string partyName;   \r\n        uint voteCount; \r\n    }\r\n\r\n    address public admin;\r\n\r\n    uint public startTime;\r\n    uint public endTime;\r\n    uint public votersNumber = 0;\r\n    uint public votedVotersNumber = 0;\r\n\r\n    mapping(address => Voter) public voters;\r\n\r\n    Candidate[] public candidates;\r\n\r\n    constructor(uint _startTime,uint _endTime) {\r\n        admin = msg.sender;\r\n        startTime = _startTime;\r\n        endTime = _endTime;\r\n    }\r\n\r\n    function addCandidates(string[] calldata candidatesList, string[] calldata candidateParty) external {\r\n        require(\r\n            block.timestamp < startTime,\r\n            \"Can't add candidate after election starts.\"\r\n        );\r\n        \r\n        require(\r\n            msg.sender == admin,\r\n            \"Only admin can add candidates.\"\r\n        );\r\n        \r\n        for (uint i = 0; i < candidatesList.length; i++) {\r\n            candidates.push(Candidate({\r\n                name: candidatesList[i],\r\n                partyName: candidateParty[i],\r\n                voteCount: 0\r\n            }));\r\n        }\r\n    }\r\n\r\n    function giveRightToVote(address[] calldata voterAddresses) external {\r\n        require(\r\n            block.timestamp < startTime,\r\n            \"Can't add voter after election starts.\"\r\n        );\r\n       \r\n        require(\r\n            msg.sender == admin,\r\n            \"Only admin can give right to vote.\"\r\n        );\r\n\r\n        for (uint p = 0; p < voterAddresses.length; p++) {\r\n            if (voters[voterAddresses[p]].hasAccess == false) {\r\n                voters[voterAddresses[p]].hasAccess = true;\r\n            }\r\n        }\r\n        votersNumber+=voterAddresses.length;\r\n    }\r\n\r\n    function vote(uint candidate) external {\r\n        Voter storage sender = voters[msg.sender];\r\n        require(\r\n            block.timestamp > startTime && block.timestamp < endTime,\r\n            \"Can't vote outside the election interval.\"\r\n        );\r\n        require(!sender.voted, \"Already voted.\");\r\n        require(sender.hasAccess, \"No access.\");\r\n        sender.voted = true;\r\n        sender.vote = candidate;\r\n        candidates[candidate].voteCount++;\r\n        votedVotersNumber++;\r\n    }\r\n\r\n    function results() public view returns (Candidate[] memory) {\r\n        return candidates;\r\n    }\r\n    \r\n    function viewVoters() public view returns (uint[2] memory) {\r\n        return [votedVotersNumber, votersNumber-votedVotersNumber ];\r\n    }\r\n  \r\n}",
  "sourcePath": "C:\\Users\\user\\Desktop\\SE Factory\\Final Project\\vote-chain\\frontend\\blockchain\\contracts\\Election.sol",
  "compiler": {
    "name": "solc",
    "version": "0.8.17+commit.8df45f5f.Emscripten.clang"
  },
  "schemaVersion": "3.4.10",
  "updatedAt": "2022-11-14T13:05:19.288Z",
  "networkType": "ethereum",
  "devdoc": {
    "kind": "dev",
    "methods": {},
    "version": 1
  },
  "userdoc": {
    "kind": "user",
    "methods": {},
    "version": 1
  }
}